:100000000C9449010C9468010C9468010C946801EB
:100010000C9468010C9468010C9468010C946801BC
:100020000C9468010C9468010C9468010C946801AC
:100030000C9468010C9468010C9468010C9468019C
:100040000C9468010C9468010C9468010C9468018C
:100050000C9468010C9468010C9468010C94442081
:100060000C9468010C9468010C9468010C9468016C
:100070000C9468010C9468010C9468010C9468015C
:100080000C9468010C9468010C9468010C9468014C
:100090000C9468010C94680105A84CCDB2D44EB9FB
:1000A0003836A9020C50B9918688083CA6AAAA2A1B
:1000B000BE000000803F000000000000005F000064
:1000C0000003000300143E143E14242A7F2A124326
:1000D0003308666136495522500005030000001CB4
:1000E0002241000041221C0014083E081408083E6A
:1000F0000808005030000008080808080060600088
:100100000020100804023E5149453E0004027F00D1
:10011000426151494622414949361814127F10273D
:10012000454545393E49494932010171090736497A
:10013000494936264949493E0036360000005636C0
:100140000000081422410014141414140041221455
:100150000802015109063E4159555E7E0909097E92
:100160007F494949363E414141227F4141413E7FDD
:10017000494949417F090909013E4141493A7F08FE
:1001800008087F00417F4100304040403F7F081415
:1001900022417F404040407F020C027F7F020408E2
:1001A0007F3E4141413E7F090909061E2121215E12
:1001B0007F09090976264949493201017F01013F3A
:1001C0004040403F1F2040201F7F2010207F4122C1
:1001D0001C224107087008076151494543007F41CF
:1001E000000002040810200000417F000402010208
:1001F0000440404040400001020400205454547820
:100200007F444444383844444444384444447F3868
:100210005454541804047E0505085454543C7F0873
:1002200004047800447D40002040443D007F1028B5
:10023000440000417F40007C047804787C0804047A
:100240007838444444387C14141408081414147C7A
:10025000007C080404485454542004043F44443CA3
:100260004040207C1C2040201C3C4030403C442826
:100270001028440C5050503C4464544C4400083600
:10028000414100007F0000414136080002010204A4
:10029000020011241FBECFEFD0E2DEBFCDBF11E0C0
:1002A000A0E0B1E0E6E0F7E600E00BBF02C0079097
:1002B0000D92A436B107D9F724E0A4E6B1E001C05D
:1002C0001D92A634B207E1F70E94BD2F0C94813332
:1002D0000C94000023B123B123B123B10197D1F7CE
:1002E0000895FC01680F791F919197FF02C02A9A27
:1002F00001C02A98299A299896FF02C02A9A01C01B
:100300002A98299A299895FF02C02A9A01C02A980A
:10031000299A299894FF02C02A9A01C02A98299AFA
:10032000299893FF02C02A9A01C02A98299A2998ED
:1003300092FF02C02A9A01C02A98299A299891FF0F
:1003400002C02A9A01C02A98299A299890FF02C0CF
:100350002A9A01C02A98299A2998E617F70721F6C0
:1003600008952A9AFC01680F791F93B1299A299858
:1003700093FB992790F9990F1B999F5F299A2998C8
:10038000990F1B999F5F299A2998990F1B999F5F35
:10039000299A2998990F1B999F5F299A2998990F53
:1003A0001B999F5F299A2998990F1B999F5F299AFA
:1003B0002998990F1B999F5F299A29989193E6177D
:1003C000F70799F608950F931F93CF93DF931F922A
:1003D000CDB7DEB708E813E161E070E0CE01019629
:1003E0000E94B10189818F3F39F084E690E00E943C
:1003F0006A010150110981F781E090E0012B11F4AD
:1004000080E090E00F90DF91CF911F910F910895C0
:10041000CF93DF931F92CDB7DEB7289A61E070E0EB
:10042000CE0101960E94B1010F90DF91CF91089506
:10043000CF93DF9300D01F92CDB7DEB7289861E04D
:1004400070E0CE0101960E94B1010E94E301009785
:1004500039F48A839B830E9408028A819B8102C0AF
:1004600081E090E00F900F900F90DF91CF91089571
:10047000CF92DF92EF92FF920F931F93CF93DF9370
:1004800000D0CDB7DEB77C016B0108EE13E061E070
:1004900070E0CE0101960E94B10189818F3F81F009
:1004A00089818E3FA9F4B601C7010E94B10162E0C3
:1004B00070E0CE0101960E94B10181E090E00AC097
:1004C00084E690E00E946A010150110901F7E8CF2B
:1004D00080E090E00F900F90DF91CF911F910F91EE
:1004E000FF90EF90DF90CF900895DF92EF92FF9210
:1004F0000F931F93CF93DF93CDB7DEB727970FB638
:10050000F894DEBF0FBECDBF182F042FF52EE62EB8
:10051000D72E87FF09C040E050E0BA0187E30E9470
:1005200075028230B8F51F771C3051F4812F80643A
:100530008983DA82EB82FC820D83112369F008C083
:100540000E9408020E941802892B81F78FEF22C0B7
:10055000183021F081E003C085E901C087E88E836F
:1005600066E070E0CE0101960E9471011C3031F40A
:1005700061E070E0CE0107960E94B1011AE061E0EF
:1005800070E0CE0107960E94B1018F8187FF02C003
:100590001150A9F727960FB6F894DEBF0FBECDBF56
:1005A000DF91CF911F910F91FF90EF90DF90089511
:1005B000EF92FF921F93CF93DF9300D0CDB7DEB7BA
:1005C0007C01162F0E94E301009731F1198361E04D
:1005D00070E0CE0101960E9471011D3FD9F060E0EC
:1005E00072E0C7010E94710162E070E0CE010196E5
:1005F0000E94B10161E070E0CE0101960E94B1015C
:1006000089818F7131E020E0853009F030E0832F5F
:10061000922F02C081E090E00F900F90DF91CF9178
:100620001F91FF90EF900895811103C08091000108
:10063000089581E00895EF92FF920F931F93CF9357
:10064000DF9300D000D0CDB7DEB7811167C080E165
:1006500097E20E946A01209A289A219A2998229A60
:100660001AE061E070E0CE0101960E94B1011150E4
:10067000C1F740E050E0BA0180E00E94750281308D
:1006800009F076C04AEA51E060E070E088E00E943C
:100690007502813009F564E070E0CE0101960E9498
:1006A000B1018B81813009F063C08C818A3A09F0F5
:1006B0005FC008EE13E040E050E060E070E489EADB
:1006C0000E947502882361F188EE93E00E946A011E
:1006D0000150110981F74CC040E050E0BA0189EAAD
:1006E0000E947502823018F001E011E002C009EAB0
:1006F00012E088EEE82E83E0F82E40E050E0BA01E8
:10070000802F0E947502882351F188EE93E00E94A9
:100710006A0181E0E81AF10881F72AC083E02AC063
:1007200040E050E0BA018AE30E947502811120C0C6
:1007300064E070E0CE0101960E94B101898186FDDE
:1007400002C014E001C01CE01093640101E011112B
:1007500000E0009300010E940802802F0BC040E0DF
:1007600052E060E070E080E10E947502882361F34E
:1007700010E0EACF0F900F900F900F90DF91CF9184
:100780001F910F91FF90EF900895EF92FF920F93BA
:100790001F93CF937B01BA01A901811103C08091FE
:1007A000000101C081E080FD32C08091640183FDC1
:1007B00007C089E0440F551F661F771F8A95D1F740
:1007C0000230110510F4C1E101C0C2E18C2F0E947A
:1007D0007502811114C060E072E0C7010E94380206
:1007E000892B29F08EEFF81A01501109A1F7C231B7
:1007F00031F440E050E0BA018CE00E9475020E94A2
:10080000080281E090E0012B21F480E002C083E047
:1008100090E0CF911F910F91FF90EF900895CF92AC
:10082000DF92EF92FF920F931F93CF93DF93EB0131
:1008300069017A01811103C08091000101C081E04A
:1008400080FD4BC08091640183FD07C099E0CC0C12
:10085000DD1CEE1CFF1C9A95D1F70130110599F4AF
:10086000B701A60188E10E94750281112EC06EEFCA
:10087000CE010E94D80231E020E0892B09F030E05F
:10088000032F122F22C0867031F0A80160E070E0C3
:1008900087E90E947502B701A60189E10E947502ED
:1008A000811113C06CEFCE010E94D802892B21F078
:1008B000DE5F01501109B1F76DEF80E090E00E941A
:1008C000D802892B11F401E010E00E94080281E0B7
:1008D00090E0012B21F480E002C083E090E0DF9102
:1008E000CF911F910F91FF90EF90DF90CF900895DF
:1008F0000F931F93CF93DF93CDB7DEB760970FB6FB
:10090000F894DEBF0FBECDBF811103C080910001FE
:1009100001C081E080FD83C08A01613091F040F028
:10092000633009F076C080E890E0A0E0B0E06AC0F3
:100930000E94180201E010E0892B09F46CC000E06D
:100940006AC040E050E0BA0189E00E947502882345
:1009500011F001E05FC060E170E0CE0101960E94FD
:100960003802892BB1F3998192959695969593705B
:10097000888549852A859130E1F48F7390E0A0E065
:10098000B0E0DC01992788270196A11DB11D50E038
:10099000542F4427BA01620F711D860F971FA11DA6
:1009A000B11D7AE0880F991FAA1FBB1F7A95D1F756
:1009B00029C04295469546954370F4E08F9FC0014B
:1009C0001124840F911D01964F81437050E0542FE4
:1009D0004427550F550F840F951FA0E0B0E03E81CE
:1009E000432F4F703B85331F3327331F340F237042
:1009F000220F230F275004C0880F991FAA1FBB1F67
:100A00002A95D2F7F80180839183A283B38300E013
:100A100001C004E010E00E940802C80102C083E0A7
:100A200090E060960FB6F894DEBF0FBECDBFDF91A9
:100A3000CF911F910F910895CF93DF93EB01DC01CC
:100A4000FA01E230F10530F0299139912D933D936F
:100A50003297F7CF9A012E7FDC01A20FB31FFB0163
:100A6000E20FF31F40FF02C020812C93DF91CF9152
:100A700008950F931F93CF93DF938B01FB0139965A
:100A8000DC011E964D915D916D917C915197452BA6
:100A9000462B472BA9F15296CD91DC915397AE018D
:100AA00080E090E03EE20196DA012D91AD01203226
:100AB00051F0253009F425EE8930910511F4308389
:100AC0003196208331968B30910569F78B85D8015B
:100AD00018968C9318974C8D5D8D6E8D7F8D4D93F0
:100AE0005D936D937C931397888D998D15969C9348
:100AF0008E9314978E899F8917969C938E93169741
:100B00001082DF91CF911F910F910895FC012081F8
:100B1000318121153105B1F0F901BF014191413217
:100B200070F04A33D1F7F90141916E177F0751F404
:100B3000403341F42E5F3F4FFC013183208380E03E
:100B400090E008958FEF9FEF08950097D1F0DC01BA
:100B5000ED91FC9111973097A1F02081222389F02B
:100B60002681378112968D919C911397281739070A
:100B700041F481810E94140380FD06C080E090E072
:100B8000089589E090E0089583E090E008958F92C1
:100B90009F92AF92BF92CF92DF92EF92FF920F930C
:100BA0001F93CF93DF93FC012481211103C080E0C8
:100BB00090E043C0EC01C2A4D3A4E4A4F5A45C017A
:100BC000FEE2AF0EB11C01E010E0A7019601B501F5
:100BD00089810E940F04892B71F51C828E8D9F8D57
:100BE000A8A1B9A1B701A601481B590B6A0B7B0B41
:100BF0008E899F89A88DB98D481759076A077B0789
:100C0000B0F68B80912CE2E08E16910480F28E89F2
:100C10009F89A88DB98DC80ED91EEA1EFB1E01E062
:100C200010E0A7019601B50189810E940F0481E0BF
:100C3000881A9108E8CF81E090E0DF91CF911F9171
:100C40000F91FF90EF90DF90CF90BF90AF909F906B
:100C50008F9008950F931F93CF93DF93EC010E9421
:100C6000C705009709F05FC08881833009F04EC046
:100C70008D81813009F04AC0BE01625D7F4FFB016A
:100C8000CE01825D9D4FE817F90711F01192FBCF5D
:100C900085E59AEAFE01E45DFD4F9183808382E55C
:100CA00092E5A1E6B1E48EA79FA7A8ABB9AB82E716
:100CB00092E7A1E4B1E67A9780839183A283B3831C
:100CC0008E859F85A889B989349680839183A28374
:100CD000B3838A859B85AC85BD853496808391835B
:100CE000A283B3838A8D9B8DAC8DBD8D9C01AD019C
:100CF0002F5F3F4F4F4F5F4F2AA73BA74CA75DA7E2
:100D000001E010E089810E940F041D8240E050E064
:100D100060E089810E94780431E020E0892B09F4A9
:100D200030E0832F922FDF91CF911F910F91089583
:100D30008F929F92AF92BF92EF92FF920F931F9369
:100D4000CF93DF93EC014A015B018AA59BA5ACA57B
:100D5000BDA5481759076A077B07F1F0CE010E942D
:100D6000C7057C01892BD1F401E010E0A5019401B5
:100D7000BE01625D7F4F89810E94C503892B39F0D6
:100D8000EE24E394F12C88248A94982C54018AA6AA
:100D90009BA6ACA6BDA602C0E12CF12CC701DF9139
:100DA000CF911F910F91FF90EF90BF90AF909F90C8
:100DB0008F900895CF93DF93EC011C828FEF9FEF0C
:100DC000DC018AA79BA7ACA7BDA7CE010E9498060D
:100DD000892B11F5FE01E45DFD4F80819181853500
:100DE0009A4AE1F4E85CF14080819181A281B3816B
:100DF000BB2786349144A445B10591F0C058DF4F1C
:100E0000488159816A817B81772781E0463451444A
:100E10006445710531F404C083E003C082E001C081
:100E200080E0DF91CF9108952F923F924F925F9291
:100E30006F927F928F929F92AF92BF92CF92DF92EA
:100E4000EF92FF920F931F93CF93DF93CDB7DEB74F
:100E50006D970FB6F894DEBF0FBECDBF5C01CB011E
:100E6000D42ED5011D921C920E9486057C0197FD0F
:100E70001FC2FC01EE0FFF1FE959FE4F00811181D7
:100E80000115110509F417C2F50111830083D8017A
:100E90008C91882371F011968C910E94140380FD2F
:100EA00008C0DD2009F40AC282FF08C28AE090E08F
:100EB0000DC2F8011082E1828E2D0E941B0380FD7D
:100EC00000C2DD2011F082FDF1CF40E050E0BA0118
:100ED000C8010E94DA068130D1F5F801E051FE4FD9
:100EE0009E012F5F3F4F6901C801805D9D4FD90171
:100EF0002081222329F0448155816681778103C0B6
:100F000040E050E0BA014D935D936D937D937096F0
:100F1000E817F90769F77E0131E1E30EF11CD6010C
:100F20004D905D906D907D906D0141145104610470
:100F3000710441F0B301A201C8010E94DA068111D7
:100F400002C010C082E0CE14DF0449F703C0412C78
:100F5000512C3201833009F4B7C1882319F08DE098
:100F600090E0B4C1F80181AD92AD81159240B9F71E
:100F7000F801EC5BFF4F80809180A12CB12C811493
:100F80009104A104B10429F43E9680809180A2804E
:100F9000B380D80156968D929D92AD92BC9259978E
:100FA000DE964C91DE9713964C9313978FEF840F38
:100FB0008230A8F6DB96EC91DB97E98B1296EC93E6
:100FC0001297EE2361F28E2F90E09C01215031099F
:100FD00082239323892B19F6F801FF962080318014
:100FE00019963C922E921897C1018F709927892BE0
:100FF00009F0B5CF3296C080D180E12CF12CC1141C
:10100000D104E104F10429F43D96C080D180E2804E
:10101000F380D801DC96ED91FC91DD97309709F4CF
:101020009ECFA42FB0E0A50194010E942D306E8BBD
:101030007F8B888F998F9F0140E050E02A8F3B8FF4
:101040004C8F5D8FC10164E0969587956A95E1F7B5
:10105000280F391F411D511DDA01C9012E893F8911
:10106000488D598D280F391F4A1F5B1F2A8B3B8BD8
:101070004C8B5D8BC216D306E406F50608F46FCFE1
:10108000C701B601621B730B840B950BE9892E2FE8
:1010900030E040E050E00E940B3021153105410561
:1010A000510509F45CCF263FFFE03F07410551059C
:1010B00048F0263F8FEF38074105510530F492E0A4
:1010C000998B05C0A1E0A98B02C0B3E0B98B69017F
:1010D0007A01E2E0CE0ED11CE11CF11CD80152963F
:1010E000CD92DD92ED92FC925597F801428E538E8F
:1010F000648E758E8A8D9B8DAC8DBD8D840D951DF6
:10110000A61DB71D868F978FA0A3B1A34A895B89BF
:101110006C897D89440D551D661D771D46A357A317
:1011200060A771A7F989F330B9F4232809F017CF24
:10113000F801E65AFF4F80819181A281B381F801C5
:1011400082A393A3A4A3B5A342E0CC0CDD1CEE1CA8
:10115000FF1C4A95D1F72DC0232809F400CF2E8912
:101160003F89488D598D820F931FA41FB51FF80129
:1011700082A393A3A4A3B5A3F989F23029F4CC0CDC
:10118000DD1CEE1CFF1C15C0A3E0B0E0A70196011A
:101190000E942D30DC01CB01B695A79597958795D8
:1011A00021E0C222DD24EE24FF24C80ED91EEA1E4F
:1011B000FB1E3FEFC30E31E0D31EE11CF11C89E0A2
:1011C000F694E794D794C7948A95D1F78C149D042C
:1011D000AE04BF0408F4C3CE8FEF9FEFDC01F8012B
:1011E00086879787A08BB18B82879387A487B587E3
:1011F00080E88583F989F33009F049C0F801E25AA3
:10120000FF4F80819181019709F041C0B301A20194
:101210004F5F5F4F6F4F7F4FC8010E949806892B29
:10122000B1F5D80115961C92F801E45DFD4F80815F
:10123000918185359A4A59F5F80186A597A5A0A907
:10124000B1A982359245A146B14409F5F801EE5E97
:10125000FD4F80819181A281B38182379247A14461
:10126000B146A9F4349680819181A281B381F801BD
:1012700086879787A08BB18BE65EFD4F8081918139
:10128000A281B381F80182879387A487B587E98912
:10129000D801EC938091650190916601019690933D
:1012A00066018093650117969C938E93169706C0EE
:1012B0008BE090E00BC08CE090E008C080E090E014
:1012C00005C083E090E002C081E090E06D960FB62B
:1012D000F894DEBF0FBECDBFDF91CF911F910F916C
:1012E000FF90EF90DF90CF90BF90AF909F908F9046
:1012F0007F906F905F904F903F902F9008950F9345
:101300001F93FC019A01AB01225031094109510997
:1013100082899389A489B5890297A109B1092817FF
:1013200039074A075B0768F4A281B0E00E942D30BC
:1013300006A117A120A531A5600F711F821F931F61
:1013400003C060E070E0CB011F910F910895AF9250
:10135000BF92CF92DF92EF92FF920F931F93CF93A2
:10136000DF938C016A017B014230510561057105F3
:1013700008F4AFC0F80182899389A489B589481718
:1013800059076A077B0708F0A4C08081823009F4FE
:101390004DC0833009F46FC0813009F09AC0EA0172
:1013A000D695C795CC0DDD1DCE01892F9927869541
:1013B000468D578D60A171A1480F591F611D711D88
:1013C000C8010E949806892B21F06FEF7FEFCB01B7
:1013D00084C05E01FFEFAF1ABF0AD170C00FD11FEA
:1013E000CEA5C501892F99278695F801468D578D81
:1013F00060A171A1480F591F611D711DC8010E9494
:101400009806892B11F7F1E0BF22F801EA0DFB1DC8
:1014100086A56C2F70E0782BC0FE06C054E0769550
:1014200067955A95E1F724C07F7022C077276F2D0A
:101430005E2D4D2DF801868D978DA0A1B1A1480F8D
:10144000591F6A1F7B1FC8010E949806892B09F04B
:10145000BCCFCC0CDD1CEE1CFF1CE894C0F8F1E006
:10146000DF22EE24FF24F801EC0DFD1D66A577A513
:1014700080E090E032C0F801868D978DA0A1B1A1E7
:1014800027E076956795579547952A95D1F7480FA8
:10149000591F6A1F7B1FC8010E949806892B09F0FB
:1014A00094CF82E0CC0CDD1CEE1CFF1C8A95D1F79A
:1014B000FCEFCF22F1E0DF22EE24FF24F801EC0D57
:1014C000FD1D86A597A5A0A9B1A9BC01CD019F705E
:1014D00004C061E070E080E090E0DF91CF911F9167
:1014E0000F91FF90EF90DF90CF90BF90AF90089555
:1014F000AF92BF92CF92DF92EF92FF920F931F9322
:10150000CF93DF938C01EB01DC0115967C936E93F6
:1015100014971696CD90DD90ED90FC901997B1E060
:10152000CB16D104E104F10419F482E090E08BC001
:10153000DC01ED91FC9182899389A489B589C81653
:10154000D906EA06FB0688F7C114D104E104F104C8
:10155000B9F48081833041F482A193A1A4A1B5A103
:101560000097A105B10551F480859185C817D90769
:10157000E0F662A173A184A195A134C06C017D0144
:10158000A280B0E1AB9E50011124B701A601F80181
:1015900080819181CA15DB0508F10E94A709AB0182
:1015A000BC014F3FEFEF5E076E077E0709F449C0AD
:1015B000423051056105710508F4B7CFD801ED91AE
:1015C000FC9182899389A489B589481759076A07CC
:1015D0007B0708F0AACFCA19DB09D9CF6A017B01C2
:1015E0000E947F09D8011A96CD92DD92ED92FC926D
:1015F0001D97611571058105910509F496CF9E012E
:1016000044E0369527954A95E1F7DC01CB01820F3E
:10161000931FA11DB11DF80186879787A08BB18B01
:10162000CF70DD2755E0CC0FDD1F5A95E1F7AE9660
:1016300080819181C80FD91FD38BC28B80E090E04D
:1016400002C081E090E0DF91CF911F910F91FF9058
:10165000EF90DF90CF90BF90AF900895CF93DF933E
:10166000EC016C817D810E94780A0097E1F44E853F
:101670005F8568897989888199810E949806009799
:1016800091F4EA89FB899F01205E3F4FE217F3073F
:1016900011F01192FBCFEA89FB8925EE2083E881C6
:1016A000F98121E02483DF91CF9108952F923F9219
:1016B0004F925F926F927F928F929F92AF92BF9262
:1016C000CF92DF92EF92FF920F931F93CF93DF930E
:1016D00000D000D0CDB7DEB71C016A017B01280124
:1016E0003901423051056105710508F4E7C0FC017C
:1016F00082899389A489B589481759076A077B07A6
:1017000008F0DCC08081823009F475C0833009F4B0
:1017100098C0813009F0D2C05A01B694A794A40EA3
:10172000B51EC501892F99278695468D578D60A1D5
:1017300071A1480F591F611D711DC1010E949806BA
:10174000009709F0BDC04501FFEF8F1A9F0A21E005
:10175000B222A20CB31CA7019601217033274427A3
:10176000552729833A834B835C83C0FE0BC0D50188
:101770009E968C91282F2F70B0E14B9EC0011124B2
:10178000822B01C0842DF50186A781E0D10114963A
:101790008C9314975E964D915D916D917C9191978C
:1017A000C401892F99278695480F591F611D711D06
:1017B000C1010E949806009709F082C0B1E09B2207
:1017C000F101E80DF91D29813A814B815C81232BC0
:1017D000242B252B41F064E076946794579447942A
:1017E0006A95D1F706C036A5307F252D2F70432E80
:1017F000422A46A65EC077276F2D5E2D4D2DF10142
:10180000868D978DA0A1B1A1480F591F6A1F7B1F1C
:10181000C1010E949806009709F052C0CC0CDD1C53
:10182000EE1CFF1CE894C0F8F1E0DF22EE24FF2458
:101830002EE2C20ED11CF101EC0DFD1D5182408241
:1018400038C0F101868D978DA0A1B1A137E07695C2
:101850006795579547953A95D1F7480F591F6A1FD5
:101860007B1FC1010E949806009751F522E0CC0C25
:10187000DD1CEE1CFF1C2A95D1F7FCEFCF22F1E016
:10188000DF22EE24FF242EE2C20ED11CF101EC0D6A
:10189000FD1D408151816281738144275527662750
:1018A000707F442A552A662A772A408251826282B2
:1018B000738221E0D10114962C9302C082E090E063
:1018C0000F900F900F900F90DF91CF911F910F917C
:1018D000FF90EF90DF90CF90BF90AF909F908F9050
:1018E0007F906F905F904F903F902F9008954F9210
:1018F0005F926F927F928F929F92AF92BF92CF92A0
:10190000DF92EF92FF920F931F93CF93DF93EC013F
:101910002A013B01411551056105710599F48A843D
:101920009B84AC84BD8481149104A104B10461F151
:101930008A899B89AC89BD8988169906AA06BB0647
:1019400038F122C00E94A7096B017C016230710549
:101950008105910508F48DC08FEFC816D806E806FA
:10196000F80629F46FEF7FEF8FEF9FEF89C08A8928
:101970009B89AC89BD89C816D906EA06FB0608F41E
:101980007DC05301420104C0812C912C54018394E9
:10199000750164012FEFC21AD20AE20AF20A8A899B
:1019A0009B89AC89BD89C816D906EA06FB0668F092
:1019B00082E088169104A104B10410F460E05AC0DA
:1019C00082E0C82ED12CE12CF12CB701A601CE016A
:1019D0000E94A7098B019C01672B682B692BA1F042
:1019E0000F3F8FEF18072807380729F0013011053E
:1019F0002105310519F4B801C90142C0C814D90440
:101A0000EA04FB0439F6DACF0FEF1FEF2FEF3FE0C8
:101A1000B701A601CE010E94560B009739F541147B
:101A2000510461047104C9F4CA86DB86EC86FD8624
:101A30008E859F85A889B9898F3F2FEF9207A207CE
:101A4000B207E1F00197A109B1098E879F87A88BA2
:101A5000B98B8D8181608D8311C097018601B3019F
:101A6000A201CE010E94560B0097F1F2019709F4F2
:101A700079CF61E070E080E090E002C0B601C7017C
:101A8000DF91CF911F910F91FF90EF90DF90CF905A
:101A9000BF90AF909F908F907F906F905F904F908E
:101AA00008957F928F929F92AF92BF92CF92DF92D2
:101AB000EF92FF920F931F93CF93DF93EC016B0193
:101AC000EC80FD808FEFE81AF80A19F484E090E0CA
:101AD000E6C04E855F8568897989411551056105A4
:101AE0007105A1F387010F7011270115110509F088
:101AF000C2C04F5F5F4F6F4F7F4F4E875F87688BCE
:101B0000798B4A855B856C857D8588819981FC010F
:101B1000411551056105710531F480859185E816FF
:101B2000F906A0F6A8C0228130E021503109F70162
:101B3000A4E0F695E795AA95E1F72E233F23232B02
:101B400009F099C00E94A7094B015C016230710540
:101B50008105910518F482E090E0A1C08FEF88160E
:101B60009806A806B80619F481E090E098C088812C
:101B70009981FC0142895389648975898416950687
:101B8000A606B70608F469C0CD2809F49FCF4A8598
:101B90005B856C857D850E94770C4B015C0161152E
:101BA00071058105910509F478C0613071058105E1
:101BB000910589F28FEF88169806A806B806A1F25B
:101BC000888199810E94C705892B71F68881998146
:101BD000FC01BE96825D9D4FE817F90711F0119246
:101BE000FBCFC880D980B501A401C6010E947F093E
:101BF000F60162A773A784A795A7C12CD12C7724DF
:101C00007394E881F981828190E0C816D906C8F4FE
:101C10007482888199810E94C705892B09F0A4CF1D
:101C2000E881F98182A593A5A4A5B5A50196A11D7A
:101C3000B11D82A793A7A4A7B5A7FFEFCF1ADF0A0C
:101C4000E0CF82A593A5A4A5B5A58C199D09A109EE
:101C5000B10982A793A7A4A7B5A78A869B86AC865D
:101C6000BD86B501A401888199810E947F096E8794
:101C70007F87888B998BFD82EC8285E0000F111F96
:101C80008A95E1F7025D1F4F88819981080F191F1E
:101C90001B8B0A8B80E090E002C087E090E0DF9130
:101CA000CF911F910F91FF90EF90DF90CF90BF9059
:101CB000AF909F908F907F9008958F929F92AF9258
:101CC000BF92CF92DF92EF92FF920F931F93CF9329
:101CD000DF93EC018B01DB018C918F3211F08C359D
:101CE00011F40F5F1F4F1E821F8218861986F8019C
:101CF0008081803228F030E2F32E45E0E42E6BC084
:101D000060E070E0CE010E94780A1B8A1A8A2FC117
:101D100080E090E040E050E028E030E0A12C8A0133
:101D20000F5F1F4FB401640F751FDB01BC90B0E261
:101D3000BB1508F467C0080D191DB0E2BB1508F00B
:101D4000B5C040E0892B09F4EDC08081853E09F4DF
:101D5000E0822830310511F4AA0CAA0C8A2D837078
:101D6000813009F440618A2D8C70843009F4486018
:101D7000438760E070E0CE010E94780A009709F482
:101D800097C09C01EC89FD8943852115310509F037
:101D9000BCC042FDC1C04A895B89FA01838584FFCA
:101DA000BEC0828D938DA0E0B0E028813981F90119
:101DB0002081233061F4FA014489558960E070E0A4
:101DC000BA0155274427842B952BA62BB72B8E833E
:101DD0009F83A887B9874801D8018C910F5F1F4F57
:101DE0008F32C9F38C35B9F3EC89FD89CF019F019E
:101DF000255F3F4F8217930709F48ACFDC01FD92DC
:101E0000CD01F8CF6FE2B61609F495CFACE5BA165E
:101E100009F491CFBEE2BB1609F487C0821793077D
:101E200008F080C0B7FE03C06A2D6360A62E6FE77E
:101E30006B0D6F3120F060E26B0D6D3130F54E5F50
:101E40005F4F080D191DD8011C9160EC610F6F33B5
:101E500028F060E8610F6D3708F064C0B901615087
:101E600071098617970708F05DC0BF01680F791FD9
:101E7000DB01BC92BC016F5F7F4F6E0F7F1F02962C
:101E8000DB011C938A01A8014ACFCB2CD12C61E342
:101E900071E0DB014D91BD01442309F450C0042ED3
:101EA000000C550B4C155D05A1F73CC044E04ACF32
:101EB0004E855F8568897989888199810E94980615
:101EC000009709F05ECFEA89FB8980818823B9F009
:101ED000838583FD0EC0AC89BD89AF01455F5F4F2F
:101EE000E417F50779F081912D9190E0821B91091B
:101EF000B9F360E070E0CE010E94510D3FCF24E0C5
:101F000030E040CF20E030E03DCFC9012430310542
:101F100071F542FF04C02BC080E090E028C085E04E
:101F200090E025C086E090E022C028303105D1F74E
:101F3000AA0CAA0C88E090E02BE030E0A4CF4FEB95
:101F40004B0D4A3120F4BA2DB260AB2E09C04FE9D7
:101F50004B0D4A3128F44A2D4160A42E60EEB60E96
:101F6000AF01480F591FDA01BC9201968CCFDF9167
:101F7000CF911F910F91FF90EF90DF90CF90BF9086
:101F8000AF909F908F900895CF93DF93EC0184E002
:101F900090E04E855F856889798941155105610515
:101FA000710509F1888199810E9498060097E9F4EA
:101FB000EA89FB8980818823E9F09385853E59F081
:101FC0008E3249F09F739F3031F09F71983019F035
:101FD00080E090E012C060E070E0CE010E94510D00
:101FE0000097B9F202C0009799F31E861F86188ADF
:101FF000198A03C084E090E0F8CFDF91CF91089573
:102000000F931F93CF93DF93EC0160E070E00E9489
:10201000780A8C01892BC1F44E855F85688979899E
:10202000888199810E9498068C01892B69F4EA893C
:10203000FB898081853E71F0882361F061E070E06A
:10204000CE010E94510DE5CF0430110519F507E0CE
:1020500010E020C04E855F856889798988819981E3
:102060000E9498068C01892BA9F4EA89FB89CF018B
:102070008096E817F90711F01192FBCF6C897D89E2
:102080004BE050E08A899B890E941C05E881F98118
:1020900081E08483C801DF91CF911F910F91089552
:1020A0008F929F92AF92BF92CF92DF92EF92FF9268
:1020B0000F931F93CF93DF93EC016A017B014230B2
:1020C00051056105710518F482E090E04FC08A89DE
:1020D0009B89AC89BD89481759076A077B07A0F718
:1020E0008A899B89AC89BD89C816D906EA06FB0690
:1020F00058F4B701A601CE010E94A7094B015C016B
:10210000672B682B692B19F480E090E02FC081E0E9
:1021100088169104A104B104B9F22FEF8216920639
:10212000A206B20609F100E010E09801B701A6018D
:10213000CE010E94560B0097C9F48E859F85A88911
:10214000B9898F3F2FEF9207A207B20751F001968E
:10215000A11DB11D8E879F87A88BB98B8D81816052
:102160008D8375016401BCCF81E090E0DF91CF9158
:102170001F910F91FF90EF90DF90CF90BF90AF90A5
:102180009F908F900895CF93DF93CDB7DEB72797B9
:102190000FB6F894DEBF0FBECDBF9C838B837E83CA
:1021A0006D837A836983CE0101964F830E948605F1
:1021B0004F8197FD24C0880F991FFC01E959FE4FFC
:1021C0000190F081E02D309709F01082EB81FC81C5
:1021D000309709F010822B813C81FC01E959FE4FB8
:1021E00031832083232B71F0413061F440E0BE0144
:1021F0006B5F7F4FCE0103960E94140705C08BE0F2
:1022000090E002C080E090E027960FB6F894DEBF21
:102210000FBECDBFDF91CF9108954F925F926F9225
:102220007F928F929F92AF92BF92DF92EF92FF9236
:102230000F931F93CF93DF93CDB7DEB7A4970FB65D
:10224000F894DEBF0FBECDBF7CA36BA3009709F44B
:10225000F9C0B42E7C01DC011D921C924E71BE01AE
:102260006D5D7F4FCE0101960E941407009709F023
:10227000F4C0CE0147969E8B8D8B6BA17CA14697B7
:102280000E945D0E0B891C89009729F40115110528
:1022900011F486E090E0BB2DBF71DB2E2B2D2C714D
:1022A00009F471C0009779F08430910521F4CE01D2
:1022B00001960E940010ED2DE860DE2E0B891C892E
:1022C000009749F0CAC0D8011B968C91817109F022
:1022D000C2C0B2FCBAC0D3FE62C080E090E0A9E602
:1022E000B5E4F80186879787A08BB18B1386D80158
:1022F000148E158E168E178EE981FA815A968D905E
:102300009C905B97A12CB12C8081833069F454960A
:102310004D915C91559760E070E0BA0155274427D4
:10232000842A952AA62AB72AD8015B961C921E9267
:102330005A9755961C921E92549781E0848381147B
:102340009104A104B10459F142A453A464A475A456
:10235000B501A401CF010E945010009709F07DC083
:1023600089819A81B1E08B1A9108A108B108FC011A
:1023700082869386A486B586B301A2010E94980640
:10238000009769F06AC0009709F067C0D8011B96F2
:102390008C9184FD5DC0B1FE02C080FD5CC0D3FEA7
:1023A00003C0BD2DB062DB2EA980BA80F50142A525
:1023B00053A564A575A5D7015A964D935D936D936A
:1023C0007C935D975F961C930E935E971496DC92B8
:1023D000149715961C92F801828D938DA0E0B0E0C1
:1023E000F5012081233061F4F8014489558960E0CA
:1023F00070E0BA0155274427842B952BA62BB72BC9
:10240000F70186879787A08BB18BF801848D958D16
:10241000A68DB78DF70182879387A487B58716822B
:10242000178210861186168A178A108E118EB18235
:10243000A082D50116968D919C91179793838283E4
:1024400080E001C089E090E008C088E090E005C02D
:1024500084E090E002C087E090E0A4960FB6F89484
:10246000DEBF0FBECDBFDF91CF911F910F91FF90C7
:10247000EF90DF90BF90AF909F908F907F906F9084
:102480005F904F9008952F923F924F925F926F927C
:102490007F928F929F92AF92BF92CF92DF92EF92F4
:1024A000FF920F931F93CF93DF93EC015B016A01BF
:1024B0001901F901118210820E94A505009709F007
:1024C00011C18D81882311F090E00CC18C8180FFB7
:1024D00007C18A859B85AC85BD854E815F816885F6
:1024E0007985841B950BA60BB70BA60160E070E005
:1024F00084179507A607B70708F077C06C0175C069
:102500004E815F8168857985DB01CA019170AA27B8
:10251000BB27892B8A2B8B2B09F0B7C08881998127
:10252000FC01228121502A013B01E9E07694679465
:1025300057944794EA95D1F7122F142109F45AC001
:10254000888099804A895B896C897D89C4010E9451
:102550007F09611571058105910509F45FC02B01A3
:102560003C01410E511C611C711C7601EF2CFF24B3
:10257000E694E114F10409F484C0F4018281212F6E
:1025800030E0A701420F531F90E08417950718F41D
:102590007C01E21AF30A8701A3019201B501F4015B
:1025A00081810E94C503892B09F043C0E881F9812C
:1025B0008481811148C0FE2CEE24FF0CAE0CBF1CA0
:1025C0008E819F81A885B9858E0D9F1DA11DB11D8E
:1025D0008E839F83A887B987F101808191818E0DB9
:1025E0009F1D91838083CE18DF08C114D10409F0A8
:1025F00087CF73C0452B462B472B29F46E857F85EB
:102600008889998906C04A895B896C897D890E947D
:10261000A709623071058105910528F482E08D8358
:1026200082E090E05FC06F3FFFEF7F078F079F075B
:1026300029F481E08D8381E090E054C06A8B7B8B2C
:102640008C8B9D8B7DCF82A593A5A4A5B5A5841960
:102650009509A609B709A70160E070E084179507FE
:10266000A607B70708F0A7CFBF01625D7F4F982F7D
:102670008827990F40E052E08A0D9B1D0E941C059F
:102680009ACF4E8A5F8A688E798E8E819F819170F3
:1026900020E032E0281B390B76012C153D0508F4AB
:1026A00079014E895F89688D798D888199810E9431
:1026B0009806892B09F0BDCF8E819F81A885B985A9
:1026C0009170AA27BB278E9668817981680F791F40
:1026D000A701C5010E941C0571CF80E090E002C0F7
:1026E00087E090E0DF91CF911F910F91FF90EF90E5
:1026F000DF90CF90BF90AF909F908F907F906F9022
:102700005F904F903F902F9008952F923F924F925D
:102710005F926F927F928F929F92AF92BF92CF9271
:10272000DF92EF92FF920F931F93CF93DF93EC0111
:102730005B016A011901F901118210820E94A5054D
:10274000009709F06EC18D81882311F090E069C176
:102750008C8181FF64C18E819F81A885B985AC0180
:10276000BD014C0D5D1D611D711D481759076A079C
:102770007B0708F0A4C0C12CD12CA1C04E815F8181
:1027800068857985DB01CA019170AA27BB27892B4F
:102790008A2B8B2B09F011C1E881F981228121500C
:1027A0002A013B01A9E07694679457944794AA952F
:1027B000D1F7122F142109F487C088819981FC0177
:1027C00042A453A464A475A44E895F89688D798D51
:1027D000441655066606770609F4CDC088809980B0
:1027E0004A895B896C897D89C4010E947F096115D2
:1027F00071058105910509F49CC02B013C01410E36
:10280000511C611C711C7601EF2CFF24E694E1142D
:10281000F10409F4B6C0F4018281212F30E0A70150
:10282000420F531F90E08417950718F47C01E21AB9
:10283000F30A8701A3019201B501F40181810E948D
:102840000F04892B09F080C088819981FC0142A581
:1028500053A564A575A5441955096609770927018B
:10286000612C712C441555056605770570F4542FBD
:102870004427550FB501640F751F40E052E08E9656
:102880000E941C05E881F9811482FE2CEE24FF0CC5
:10289000AE0CBF1C8E819F81A885B9858E0D9F1DB2
:1028A000A11DB11D8E839F83A887B987F101808107
:1028B00091818E0D9F1D91838083CE18DF08C114F6
:1028C000D10409F05BCF1DC0452B462B472B69F483
:1028D0006E857F85888999896115710581059105C6
:1028E00019F540E050E0BA0104C04A895B896C895F
:1028F0007D89CF010E94770C6115710581059105D5
:1029000099F48E819F81A885B9854A855B856C8500
:102910007D85481759076A077B0708F07AC08A87C0
:102920009B87AC87BD8775C06130710581059105B6
:1029300029F482E08D8382E090E073C06F3FFFEF67
:102940007F078F079F0729F481E08D8381E090E066
:1029500068C06A8B7B8B8C8B9D8B4E845F84688870
:10296000798845284628472809F027CF6E877F8732
:10297000888B998B22CF0E94C705892B09F42ECF13
:10298000E3CF4E815F81688579858A859B85AC859B
:10299000BD85481759076A077B0758F0C4010E9494
:1029A000C705892B89F6E881F98142A653A664A65A
:1029B00075A64E8A5F8A688E798E8E819F8191700E
:1029C00020E032E0281B390B76012C153D0508F478
:1029D00079014E895F89688D798D888199810E94FE
:1029E0009806892B09F0B0CF8E819F81A885B98583
:1029F0009170AA27BB278E9628813981A701B5013E
:102A0000820F931F0E941C05E881F98131E0348315
:102A10003FCF8C8180628C8380E090E002C087E0B1
:102A200090E0DF91CF911F910F91FF90EF90DF9099
:102A3000CF90BF90AF909F908F907F906F905F905E
:102A40004F903F902F900895EF92FF920F931F9316
:102A5000CF93DF9300D0CDB7DEB7FC012281338165
:102A600037FD2EC08C017901FFEFEF1AFF0AFC0140
:102A7000E20FF31F66838DE3E816F104CCF09E01AC
:102A80002F5F3F4FA701B8016A5F7F4FF801808138
:102A900091810E94851381E090E029813A812E1571
:102AA0003F0511F480E090E0EE24FF24E81AF90AD3
:102AB000F801F382E2828481958101969583848373
:102AC0000F900F90DF91CF911F910F91FF90EF909A
:102AD0000895CF93DF93EC010E94A5050097C9F5F7
:102AE0002C8125FF36C04A8D5B8D6C8D7D8D888154
:102AF00099810E949806009761F5EE8DFF8D838580
:102B0000806283878A859B85AC85BD85848F958F00
:102B1000A68FB78F8E859F85A889B989938F828F5D
:102B2000B58BA48B80E090E0A9E6B5E4868B978B0B
:102B3000A08FB18F138A128A8C818F7D8C83E8815C
:102B4000F98181E0848388819981DF91CF910C9410
:102B50002A06DF91CF910895CF93DF93EC010E9475
:102B60006915009739F4CE010E94A505009711F46C
:102B700019821882DF91CF9108952F923F924F9240
:102B80005F926F927F928F929F92AF92BF92CF92FD
:102B9000DF92EF92FF920F931F93CF93DF9300D0BA
:102BA00000D0CDB7DEB71C016A017B010E94A505EC
:102BB000009709F061C1D10115968C91882311F01D
:102BC00090E05AC1F10182859385A485B5858C1565
:102BD0009D05AE05BF0528F4248121FD02C06C01CE
:102BE0007D01D10116964D905D906D907C90199766
:102BF000F1011682178210861186C114D104E104F6
:102C0000F10421F4C12CD12C760108C1008111817D
:102C1000F8018280912CA12CB12C39E0880C991CF0
:102C2000AA1CBB1C3A95D1F74114510461047104EC
:102C300009F43FC0F1E04F1A510861087108C7015B
:102C4000B6016150710981099109A50194010E94A1
:102C50000B3029833A834B835C83C301B201A50106
:102C600094010E940B3089819A81AB81BC818217CB
:102C70009307A407B507E8F088279927DC0188198E
:102C80009909AA09BB09482259226A227B22D1014B
:102C900016964D925D926D927C921997C418D50844
:102CA000E608F70852964D915D916D917C9155978C
:102CB00036C0F101468557856089718941155105F6
:102CC0006105710539F540E050E0BA01C8010E9484
:102CD000770CAB01BC01413051056105710539F438
:102CE00082E0D10115968C9382E090E0C5C04F3F01
:102CF000BFEF5B076B077B0731F481E0F101858350
:102D000081E090E0B9C0D1011E964D935D936D9323
:102D10007C935197F101428B538B648B758B4115DA
:102D200051056105710509F46DCF8C149D04AE0445
:102D3000BF0408F047C0D10114962C9114978D91CF
:102D40009C9121FF0AC00E94770CAB01BC01411588
:102D500051056105710529F433C00E94A709AB0133
:102D6000BC014F3FBFEF5B076B077B0731F242307F
:102D700051056105710508F4B3CFD101ED91FC91C6
:102D800082899389A489B589481759076A077B07FF
:102D900008F0A6CFF101428B538B648B758B868133
:102DA0009781A085B185880D991DAA1DBB1D8683BD
:102DB0009783A087B187C818D908EA08FB08B5CF60
:102DC00075016401F10186819781A085B1858C0D23
:102DD0009D1DAE1DBF1D86839783A087B187D70138
:102DE000C6019170AA27BB27892B8A2B8B2B09F44C
:102DF00009CF808191810E947F096115710581054C
:102E0000910509F46DCF29E0F694E794D794C7941F
:102E10002A95D1F7C60ED71EE81EF91EF10186814C
:102E20009781A085B185AC01BD01517066277727D8
:102E3000452B462B472B69F046895789608D718D4C
:102E4000C416D506E606F70621F0C68AD78AE08EB4
:102E5000F18EF101428553856485758548175907C0
:102E60006A077B0738F482879387A487B5878481B4
:102E70008062848380E090E00F900F900F900F901D
:102E8000DF91CF911F910F91FF90EF90DF90CF9046
:102E9000BF90AF909F908F907F906F905F904F907A
:102EA0003F902F9008950F931F93CF93DF93CDB74B
:102EB000DEB760970FB6F894DEBF0FBECDBF788B3C
:102EC0006F87009709F45EC08C0140E0BE01615F2E
:102ED0007F4FCE010D960E941407009709F04EC057
:102EE0008D859E85D80111969C938E93CE01019677
:102EF00055969C938E9354976F857889C8010E944C
:102F00005D0E009709F045C0F801428953894115CB
:102F1000510519F1DA011B968C911B9784FF2CC087
:102F20005A968D919C915B97A0E0B0E02D853E85EF
:102F3000F9012081233061F4FA014489558960E068
:102F400070E0BA0155274427842B952BA62BB72B6D
:102F5000F80186839783A087B187ED85FE858681FA
:102F60009781F8019383828360E070E0C8010E943A
:102F7000780A8430910541F485E090E0D8011D92F3
:102F80001C920BC089E003C00097C1F780E090E07D
:102F900004C08430910591F7EFCF60960FB6F89496
:102FA000DEBF0FBECDBFDF91CF911F910F9108956E
:102FB000CF93DF93EC010E94A505009711F41982CD
:102FC0001882DF91CF910895CF92DF92EF92FF9216
:102FD0000F931F93CF93DF93CDB7DEB72C970FB628
:102FE000F894DEBF0FBECDBF8C016B010E94A5051A
:102FF0007C01892B79F5C114D10431F460E070E0D3
:10300000C8010E94780A25C0CE010196F801958B6F
:10301000848BC8010E94C40F8430910531F4F801FB
:1030200016861786108A118A02C0009791F4B6019D
:10303000C8010E94390560E070E0C8010E94510D8E
:103040008430910531F4F80116861786108A118AAA
:1030500001C07C01C7012C960FB6F894DEBF0FBEED
:10306000CDBFDF91CF911F910F91FF90EF90DF9037
:10307000CF900895EF92FF920F931F93CF93DF931A
:10308000CDB7DEB7A4970FB6F894DEBF0FBECDBFA5
:103090009CA38BA37B0140E0BE016D5D7F4FCE0101
:1030A00001960E9414078C01892BD9F4CE01479612
:1030B0009E8B8D8B6BA17CA146970E945D0E8C012F
:1030C000892B79F48B899C89892B49F0E114F104CF
:1030D00041F0B701CE0101960E94390502C006E019
:1030E00010E0C801A4960FB6F894DEBF0FBECDBFA6
:1030F000DF91CF911F910F91FF90EF9008952F9244
:103100003F924F925F926F927F928F929F92AF9277
:10311000BF92CF92DF92EF92FF920F931F93CF93C4
:10312000DF93CDB7DEB729970FB6F894DEBF0FBE99
:10313000CDBF9A8389834B018A0140E0BE016F5F56
:103140007F4FC8010E9414075C01D8010D911C91AA
:10315000892B09F0C0C0F80186859785A089B189BF
:103160004288538864887588B301A201425051098E
:1031700061097109481759076A077B0730F0F401A4
:1031800080839183A283B383A6C0B081BF83B13013
:1031900099F522E0422E512C612C712CC12CD12C9E
:1031A0007601B301A201C8010E94A7096F3FEFEFAA
:1031B0007E078E079E0709F477C06130710581058F
:1031C000910509F475C0672B682B692B29F4FFEF73
:1031D000CF1ADF0AEF0AFF0A2FEF421A520A620AD9
:1031E000720AF80182899389A489B589481659061B
:1031F0006A067B06B0F261C0468D578D60A171A151
:10320000E0E0F0E019861886C12CD12C7601180177
:10321000BEE22B0E311C88859985892BC1F4DB0118
:10322000CA010196A11DB11D8B839C83AD83BE8312
:10323000C8010E949806009709F03EC0F1014B8139
:103240005C816D817E81A0E0B2E0B987A8872F8183
:10325000223071F420813181232B29F48FEFC81A99
:10326000D80AE80AF80A3296A885B985129712C0DA
:1032700080819181A281B381BF70892B8A2B8B2B96
:1032800029F49FEFC91AD90AE90AF90A3496A885E0
:10329000B9851497B987A887B1E04B1A510861081E
:1032A000710809F0B8CF09C0AA24A394B12C05C0B5
:1032B00082E0A82EB12C01C05C01F801C686D78639
:1032C000E08AF18A858181608583D401CD92DD9287
:1032D000ED92FC921397C50129960FB6F894DEBFC4
:1032E0000FBECDBFDF91CF911F910F91FF90EF9057
:1032F000DF90CF90BF90AF909F908F907F906F9016
:103300005F904F903F902F900895CF92DF92EF9271
:10331000FF920F931F93CF93DF93EC010E94A505BB
:103320008C01892B09F071C08D81882319F0082F39
:1033300010E06BC08C8181FF62C04E815F81688527
:103340007985CA84DB84EC84FD844C155D056E05AB
:103350007F0508F05AC04A875B876C877D8780624B
:103360008C8388819981452B462B472B61F44E85B0
:103370005F85688979890E9450108C011E861F869E
:10338000188A198A37C04A895B896C897D890E94AD
:10339000A7096B017C018FEFC816D806E806F8066E
:1033A00089F1E1E0CE16D104E104F10419F402E060
:1033B00010E023C088819981FC0142895389648986
:1033C0007589C416D506E606F706F8F44A895B89BE
:1033D0006C897D890FEF1FEF2FEF3FE00E94560BA6
:1033E0008C01892B51F4B701A601888199810E9433
:1033F00050108C010115110541F00D8306C007E046
:1034000010E003C001E010E0F8CFC801DF91CF91D8
:103410001F910F91FF90EF90DF90CF900895CF9282
:10342000DF92EF92FF92CF93DF93CDB7DEB7EA97AB
:103430000FB6F894DEBF0FBECDBF9AAF89AF41E0A3
:10344000BE01675C7F4FCE0147960E94140700972C
:1034500009F06EC0CE018D969CA78BA769AD7AADA1
:1034600046970E945D0E009709F062C0E9A5FAA593
:103470003097E9F1238520FD59C0C28CD38CE12C13
:10348000F12CAF89B88D8C91833059F4848995895A
:10349000A0E0B0E0DC0199278827C82AD92AEA2AC7
:1034A000FB2A24FF27C0C114D104E104F104D9F19F
:1034B00046E150E0BE01695E7F4FCE0101960E9459
:1034C0001C05CF82D886E986FA8662E070E0CE01DC
:1034D00001960E94780A009759F5CE0101960E9444
:1034E000C40F009719F18430910521F021C086E0C6
:1034F00090E01EC0CE0147960E942E0B0097C1F4AB
:10350000C114D104E104F10429F48F89988D0E943B
:103510002A060EC0B701A6018F89988D0E9450100F
:10352000009731F4F2CF82E090E002C087E090E0B3
:10353000EA960FB6F894DEBF0FBECDBFDF91CF91F4
:10354000FF90EF90DF90CF9008952F923F924F928F
:103550005F926F927F928F929F92AF92BF92CF9223
:10356000DF92EF92FF920F931F93CF93DF93CDB72C
:10357000DEB7AC970FB6F894DEBF0FBECDBF9CA3ED
:103580008BA341E0BE016D5D7F4FCE0101960E948D
:1035900014078C01892B09F0FBC0CE0147969E8B46
:1035A0008D8B6BA17CA146970E945D0E8C010097CC
:1035B000F9F0049709F0ECC040E050E0BA018981CD
:1035C0009A810E94770C6B017C01672B682B692B19
:1035D00091F081E0C816D104E104F10479F402E02D
:1035E00010E0B701A60189819A810E945010D0C0D5
:1035F00008E010E0CDC007E010E0F3CFBFEFCB163E
:10360000DB06EB06FB0609F49DC089819A810E94C6
:10361000C7058C01892B29F709811A81B701A601F9
:10362000C8010E947F092B013C0158019EE2A90EAE
:10363000B11C4801A2ED8A1AADEF9A0AF501E8150E
:10364000F90511F01192FBCFC801C996F50120E2EE
:10365000E817F90711F02193FBCF8EE2382EF8011D
:1036600036A680E181AF80E090E0A9E6B5E4EC5BAE
:10367000FF4F80839183A283B3833496D182C0822B
:10368000C701AA27BB278DA39EA3AFA3B8A73697D0
:103690009183808340E250E0B501C801825B9F4F77
:1036A0000E941C05F801E15BFF4F30824F81588575
:1036B00069857A85E981FA818081833061F482A10C
:1036C00093A1A4A1B5A1481759076A077B0719F46C
:1036D00040E050E0BA01D801A859BF4F11965C9361
:1036E0004E9316976D937C9332802224239433203B
:1036F00061F189819A81B301A2014F5F5F4F6F4FE2
:103700007F4FDC019A964D925D926D927C929D97CF
:1037100014962C9249A75AA76BA77CA70E94C705AD
:103720008C0149A55AA56BA57CA5892B09F059CF19
:10373000F501E815F90511F01192FBCF3A942A0131
:103740003B01D5CF01E010E04CCFCE0101960E94A5
:1037500000108C01892B09F044CFEB89FC8980E1B2
:10376000838780E090E0A9E6B5E4868B978BA08FF5
:10377000B18FD38EC28E8DA19EA1958B848B8981B2
:103780009A8121E0DC0114962C930E942A068C0178
:10379000C801AC960FB6F894DEBF0FBECDBFDF9167
:1037A000CF911F910F91FF90EF90DF90CF90BF903E
:1037B000AF909F908F907F906F905F904F903F90D1
:1037C0002F9008950F931F93CF93DF93CDB7DEB75C
:1037D000A4970FB6F894DEBF0FBECDBF9CA38BA3FA
:1037E000162F042F41E0BE016D5D7F4FCE01019683
:1037F0000E941407009711F5CE0147969E8B8D8B82
:103800006BA17CA146970E945D0E0097B9F4EB89ED
:10381000FC89309789F0402F4772942F90958385CB
:1038200089231423182B138789819A8121E0FC01B5
:1038300024830E942A0602C086E090E0A4960FB678
:10384000F894DEBF0FBECDBFDF91CF911F910F91D6
:103850000895EF92FF920F931F93CF93DF93CDB70D
:10386000DEB7C155D1090FB6F894DEBF0FBECDBF8C
:1038700060969FAF8EAF609762967FAF6EAF629794
:1038800041E0BE01625B7F4FCE0147960E94140764
:10389000009709F0C5C08F89988D9A838983CE01DE
:1038A0008E5B9F4F9CA78BA760966EAD7FAD609798
:1038B0008B970E945D0E009709F0B2C069A57AA5AA
:1038C0006115710509F496C0655F7F4F45E150E0D1
:1038D000CE018D960E941C0546E150E0BE01695E56
:1038E0007F4FCE0101960E941C05CE01805B9F4F49
:1038F0000E94860597FD81C062966EAD7FAD62978E
:10390000CE0101960E945D0E009709F479C08430C3
:10391000910509F085C0CE0101960E940010009724
:1039200009F07EC0EB88FC8843E150E0BE01615D98
:103930007F4FC7010D960E941C058DA58062D7019F
:103940001B968C931B970F89188D81E0F801848357
:103950001B968C9184FF5AC04D8D5E8D6F8D78A122
:103960008F819885A985BA85481759076A077B070B
:1039700009F44CC0D7015A964D915C915B9760E079
:1039800070E08081833069F454968D919C915597B5
:10399000A0E0B0E0DC0199278827482B592B6A2B3F
:1039A0007B2BC8010E947F09AB01BC014115510569
:1039B0006105710541F1C8010E949806EF89F88DF3
:1039C000009771F5DF01A15BBF4F8C918E32F1F44E
:1039D0004F81588569857A859F0128593F4FD901C4
:1039E0004D935C9326503109D9016D937C9381E00E
:1039F00084830CC084E090E013C08BE090E010C0A2
:103A000088E090E00DC082E090E00AC0CE014796C9
:103A10000E942E0B009721F48F89988D0E942A0610
:103A2000CF5ADF4F0FB6F894DEBF0FBECDBFDF9188
:103A3000CF911F910F91FF90EF9008950F931F93D7
:103A4000CF93DF93CDB7DEB7A4970FB6F894DEBF60
:103A50000FBECDBF9CA38BA38B0141E0BE016D5D6A
:103A60007F4FCE0101960E941407009731F5CE01D9
:103A700047969E8B8D8B6BA17CA146970E945D0E15
:103A80000097D9F4EB89FC893097A9F0D8011696F4
:103A90008D919C911797978B868B14968D919C9105
:103AA0001597918F808F89819A8121E0FC01248371
:103AB0000E942A0602C086E090E0A4960FB6F89411
:103AC000DEBF0FBECDBFDF91CF911F910F91089543
:103AD0008F929F92AF92BF92CF92DF92EF92FF921E
:103AE0000F931F93CF93DF9300D000D0CDB7DEB7F5
:103AF0007C014A018C01C12CD12C5B0181E0A81A08
:103B0000B108CA14DB04D4F49E012F5F3F4F41E09B
:103B100050E0BE016D5F7F4FC4010E944312898156
:103B20009A81019759F48B810F5F1F4FF8013197EC
:103B300080839FEFC91AD90A8A3019F7F8011082D9
:103B4000CD2811F0C70102C080E090E00F900F90E7
:103B50000F900F90DF91CF911F910F91FF90EF90F9
:103B6000DF90CF90BF90AF909F908F900895CF93AC
:103B7000DF93CDB7DEB7C854D1090FB6F894DEBFD6
:103B80000FBECDBF7A8369831C821B821E821D8279
:103B9000682FCE0101960E9424154B815C8157FF4E
:103BA00003C08FEF9FEF17C09E01295B3F4FBE01FF
:103BB000695F7F4F89819A810E948513892B89F7DC
:103BC0002B813C8129968EAD9FAD29972817390707
:103BD00041F78D819E81C85BDF4F0FB6F894DEBF41
:103BE0000FBECDBFDF91CF9108950F931F93CF9359
:103BF000DF93CDB7DEB7C854D1090FB6F894DEBF56
:103C00000FBECDBF7A8369831C821B821E821D82F8
:103C10008C01F80161918F01662329F0CE01019694
:103C20000E942415F6CF4B815C8157FF03C08FEFB4
:103C30009FEF17C09E01295B3F4FBE01695F7F4F19
:103C400089819A810E948513892B89F72B813C8178
:103C500029968EAD9FAD29972817390741F78D8199
:103C60009E81C85BDF4F0FB6F894DEBF0FBECDBF9D
:103C7000DF91CF911F910F9108952F923F924F9214
:103C80005F926F927F928F929F92AF92BF92CF92EC
:103C9000DF92EF92FF920F931F93CF93DF93CDB7F5
:103CA000DEB7CE55D1090FB6F894DEBF0FBECDBF3B
:103CB000E796CEACDFACE797E5968EAD9FADE59786
:103CC0009A8389831C821B821E821D827E0127E7C4
:103CD000E20EF11C1E0147E4240E311CD6016C914A
:103CE000662309F451C1653221F0BFEFCB1ADB0A1C
:103CF0009CC0F6011181103331F43396D60112962F
:103D00001C9101E00BC0F6011D3219F0329600E063
:103D100005C03396D60112961C9102E0812C912C9D
:103D20006F0180ED810F8A3080F4BAE0B89DC00148
:103D3000B99D900D11244C01810E911C17FD9A9490
:103D400020E3821A91081191EBCF812F8F7D8C3463
:103D500029F404604FEFC41AD40A1081112309F426
:103D600013C18FE9810F8A3118F420EE210F01C0B1
:103D7000212F2F34E1F054F4233409F448C02434C3
:103D800009F45AC0223409F455C04EC0253509F44F
:103D900053C0283509F446C0233509F045C0F70162
:103DA0006080718082E0E80EF11CF30102C038E00F
:103DB00044C0CF018619970921912111FACF5C01E6
:103DC00001FD0EC05C01AFEFAA1ABA0A8815990569
:103DD00038F460E2CE0101960E942415C501F2CFAD
:103DE000F30161913F01662329F0CE0101960E9403
:103DF0002415F6CFA814B90408F070CF60E2CE0104
:103E000001960E942415FFEFAF1ABF0AF3CF870176
:103E10000E5F1F4FD7016C91CE0101960E942415B1
:103E200078015CCF30E109C0612FCE0101960E947C
:103E3000241554CF32E001C03AE002FF0BC0F70175
:103E40006081718182819381B4E0EB0EF11C243496
:103E500009F516C0A7014E5F5F4F243449F4F701FE
:103E600080819181BC01990F880B990B7A0108C060
:103E7000D7018D919C91BC0180E090E07A010AC04D
:103E800097FF08C090958095709561957F4F8F4FF3
:103E90009F4F08606B963FAE2EAE6B97A12CB12C56
:103EA000432E512C612C712C6F964CAE5DAE6EAED4
:103EB0007FAE6F976F962CAD3DAD4EAD5FAD6F97FA
:103EC0000E940B302B013C01CA01B901AAE04A163D
:103ED00051046104710410F4E42D06C0183711F088
:103EE000E7E001C0E7E2E40DBFEFAB1ABB0AE05D1B
:103EF0006B96AEADBFAD6B97ED936B96BFAFAEAFAC
:103F00006B97232B242B252B21F0B0E1AB16B104AA
:103F100089F603FF09C0F101EA0DFB1D8DE2482E71
:103F20004082C50101965C0100FD02C010E201C0A3
:103F300010E3350101FD0FC023019FEF491A590A13
:103F40006814790438F4612FCE0101960E9424157B
:103F50003201F2CF3201A20CB31CD5016E915D018A
:103F6000CE0101960E942415A214B304B1F768147F
:103F7000790408F0B3CE612FCE0101960E9424157A
:103F8000BFEF6B1A7B0AF3CF4B815C8157FF03C0F5
:103F90008FEF9FEF17C09E01295A3F4FBE01695F07
:103FA0007F4F89819A810E948513892B89F72B8104
:103FB0003C8169968EAD9FAD69972817390741F707
:103FC0008D819E81C25ADF4F0FB6F894DEBF0FBEBF
:103FD000CDBFDF91CF911F910F91FF90EF90DF90B8
:103FE000CF90BF90AF909F908F907F906F905F9099
:103FF0004F903F902F900895CF93DF93EC0184E092
:104000000E94C025882321F00E94FA2D0E94512F82
:1040100088E00E94C025882331F00E94FA2D8AE0B2
:1040200090E00E94BF2E80E10E94C025882391F07D
:104030000E94FA2D409128045091290456954795E5
:1040400060912604709127047695679585E090E04D
:104050000E94842E80E20E94C025882331F00E94B5
:10406000FA2D0E94ED2A0E94A82E80E80E94DA25EF
:10407000882331F00E94FA2D85E090E00E94372ECF
:10408000CE01DF91CF9108951F920F920FB60F923C
:1040900011240BB60F92CF92DF92EF92FF920F9303
:1040A0001F932F933F934F935F936F937F938F93C0
:1040B0009F93AF93BF93CF93DF93EF93FF9310E062
:1040C0000DE0DD24D394CC24CA94E12EF12C809110
:1040D0000C01082E000C990B8E159F050CF457C08F
:1040E0000E9DE0010F9DD00D1124CC55DC4F4D816C
:1040F0005E816F81788589819A81AB81BC81481707
:1041000059076A077B0778F1E0916B01F0E0EF5FF8
:10411000FE4F8081181738F58881811124C0F894EA
:104120001D821E821F821886D882E0916B01EF5F8C
:10413000E0936B01F0E0EF5FFE4F10837894E98528
:10414000FA858B859C8509959C878B87F8941882C6
:1041500080916B01E82FF0E0EF5FFE4FC08281504D
:1041600080936B0178940E9DF0010F9DF00D11244A
:10417000EC55FC4F85819681A781B0850196A11DE4
:10418000B11D85839683A783B0871F5F9ECFFF9164
:10419000EF91DF91CF91BF91AF919F918F917F91DF
:1041A0006F915F914F913F912F911F910F91FF90D0
:1041B000EF90DF90CF900F900BBE0F900FBE0F903F
:1041C0001F90189583E884BD85B5836085BD81E027
:1041D00080936E0016BC8FEF87BD0895882319F079
:1041E00087BD279A089527980895EF92FF920F931D
:1041F0001F93CF93DF937C01C0910C010C2E000C18
:10420000DD0B2196CA30D1055CF58901CB01BA01DD
:104210000E94753125E732E04AEF5EE30E944232A8
:1042200020E030E040E05FE30E945C300E944631D5
:104230002DE02C9FF0012D9FF00D1124EC55FC4F2B
:104240006183728383839483658376838783908776
:104250001082F286E18614870387C0930C0102C0A6
:10426000CFEFDFEFCE01DF91CF911F910F91FF9044
:10427000EF90089593E89093B00091E09093B1008F
:104280008093B300089590932B0480932A0426E32F
:1042900030E020930040009779F480EF90E0909315
:1042A00027048093260480E491E09093290480936E
:1042B000280488E490E034C08130910579F480E4EA
:1042C00091E0909327048093260480EF90E09093F0
:1042D00029048093280488EE90E022C08230910562
:1042E00079F480EF90E0909327048093260480E493
:1042F00091E0909329048093280488E890E010C00E
:10430000039781F480E491E090932704809326043E
:1043100080EF90E0909329048093280488E290E055
:10432000809300418AE290E08093004020E030E0FA
:1043300030930041209300418091260490912704FE
:10434000019790930041809300418BE290E080932D
:1043500000403093004120930041809128049091C7
:104360002904019790930041809300410895CF93D1
:10437000873748F4883048F08D3350F48F3150F44B
:10438000803120F009C086E703C088E0C3E005C0A3
:10439000C0E003C0C1E001C0C2E021EB30E02093E7
:1043A0000040C0930041682F70E080E090E00E94E0
:1043B00077319B01AC0160E070E080EF94E40E94F3
:1043C000CD300E94463170E002C075956795CA9560
:1043D000E2F760930041CF9108950F931F93CF931D
:1043E000DF93CDB7DEB728970FB6F894DEBF0FBEC8
:1043F000CDBF29833A834B835C836D837E838F8318
:10440000988769817A812B813C814D815E818F8182
:104410009885EAE2F0E0E0930040709300416093F9
:1044200000413093004120930041EBE2F0E0E09343
:10443000004050930041409300419093004180938D
:104440000041ECE2F0E0E09300402F5F3F4F261B7D
:10445000370B0196841B950B2817390790F4482FCA
:104460004770429FB001439F700D112453E0969511
:1044700087955A95E1F7829FA001839F500D1124E3
:1044800011C0422F4770489FB001499F700D112401
:1044900043E0369527954A95E1F7289FA001299F8B
:1044A000500D1124862F8770815028F01093004101
:1044B00000930041F9CFCB0123E0969587952A958B
:1044C000E1F7840F951F019708F1109300410093C5
:1044D000004110930041009300411093004100936C
:1044E000004110930041009300411093004100935C
:1044F000004110930041009300411093004100934C
:1045000000411093004100930041DDCF28960FB683
:10451000F894DEBF0FBECDBFDF91CF911F910F91F9
:104520000895EF92FF920F931F93CF93DF93CDB730
:10453000DEB728970FB6F894DEBF0FBECDBF298334
:104540003A834B835C836D837E838F8398878981D5
:104550009A81EB80FC806D817E81AF81B8852AE2F3
:1045600030E0209300409093004180930041F0920E
:104570000041E09200412BE230E020930040709334
:10458000004160930041B0930041A09300412CE2B0
:1045900030E020930040E816F906A0F0A8019B0146
:1045A0008A01A217B30760F04E5F5F4FF8010081E8
:1045B000118110930041009300412F5F3F4FF0CFD6
:1045C0000196E9CF28960FB6F894DEBF0FBECDBF97
:1045D000DF91CF911F910F91FF90EF9008950F936E
:1045E0001F93CF93DF93CDB7DEB728970FB6F8941C
:1045F000DEBF0FBECDBFE6E2F4E017821682118661
:1046000010861A821982808191810197482F9C839C
:104610008B831E821D8282819381019798878F836D
:104620000485158520E03A815C8160E07E81988573
:104630000E94ED2128960FB6F894DEBF0FBECDBFC5
:10464000DF91CF911F910F91089586E080937500BF
:1046500080E8809374003F9A249A8FEC97E001974A
:10466000F1F700C0000047988FE39CE90197F1F74C
:1046700000C00000479A9FEF2DEE82E0915020404D
:104680008040E1F700C0000088E290E080930040A5
:1046900081E190E0809300409FEF26E781E0915018
:1046A00020408040E1F700C0000021E030E08BECCA
:1046B00090E0809300402093004180EC90E0809354
:1046C000004088E096E2909300418093004120E111
:1046D00030E081EC90E0809300402093004185EC35
:1046E00090E0809300408EE395E3909300418093A7
:1046F000004125EB30E087EC90E080930040209370
:10470000004121E030E086EF90E08093004020936C
:10471000004180E090E0909300418093004125E5C6
:1047200030E08AE390E0809300402093004181E0F4
:1047300090E00E9443210E94EF22E6E2F4E017821B
:10474000168211861086158614868FEF9FEF938749
:10475000828789E290E0809300409FE728E381E030
:10476000915020408040E1F700C0000020E030E0A0
:1047700085E390E08093004020930041EAE6F0E07A
:104780008081806280832C9A08959F92AF92BF921D
:10479000CF92DF92EF92FF920F931F93CF93DF930D
:1047A00060912C0470912D0420912E0430912F04DF
:1047B0008A30F9F410922D0410922C04285F3F4F98
:1047C00030932F0420932E04809128049091290483
:1047D0002817390708F4A1C0DF91CF911F910F91DD
:1047E000FF90EF90DF90CF90BF90AF909F900C9490
:1047F000EF2290EE980F9F3508F08FC0A901495F16
:104800005F4F082E000C990B8097E5E0E89FE001D0
:10481000E99FD00D11248BE290E08093004030930B
:104820000041209300415093004140930041CB014F
:10483000DB0114960AE210E0ECE2EE2EF12CA81750
:10484000B90780F1009300409093004180930041AC
:104850009093004180930041E0920040FC01E61BF0
:10486000F70BEC0FFD1FEA54FF4F94906901F1E044
:104870004C155D05A8F0BF2EB92029F0A09030049A
:10488000B090310404C0A0903204B0903304B092D0
:104890000041A0920041EFEFCE1ADE0AFF0FE8CFF1
:1048A0000196CDCF6AE270E06093004090930041A2
:1048B0008093004190930041809300418CE290E00E
:1048C000809300404217530758F080913204909132
:1048D000330490930041809300412F5F3F4FF2CF0C
:1048E00080912C0490912D04069690932D04809332
:1048F0002C0420912604309127048217930768F036
:1049000010922D0410922C0480912E0490912F046B
:10491000089690932F0480932E04DF91CF911F91DE
:104920000F91FF90EF90DF90CF90BF90AF909F904E
:1049300008950F931F93CF938C01C0E0F801EC0F03
:10494000F11D8081882321F00E94C523CF5FF6CF1F
:10495000CF911F910F9108950F931F93CF938C01C7
:1049600070932D0460932C0450932F0440932E04D5
:10497000C0E0F801EC0FF11D8081882321F00E9436
:10498000C523CF5FF6CFCF911F910F910895EF927E
:10499000FF920F931F93CF93DF93C0E0D0E090E896
:1049A000E92EF12C082F10E0C7010C2E02C09595BE
:1049B00087950A94E2F780239123892B11F081E3F4
:1049C00001C08EE20E94C5232196C830D10561F74F
:1049D000DF91CF911F910F91FF90EF900895CF93AA
:1049E000C82F8A3019F48DE00E94EF248091C8000E
:1049F00085FFFCCFC093CE008C2FCC0F990BCF91AD
:104A000008958091C80087FFFCCF8091CE0090E090
:104A100008951092CD0083E38093CC0088E18093C9
:104A2000C90086E08093CA00E0E4F4E08BE191E005
:104A300093838283958384838DE091E09183808347
:104A40000895E1E6F0E080E880831082279A0E94D2
:104A500009250E9425230E94E2200C949125AC0197
:104A6000F8949CB195FF02C023E001C020E094FFC0
:104A700002C081E0282790916F01921B90FF09C02E
:104A800020936F012091370421509270920F9093E0
:104A900037047894CA010895BC01F8942091360433
:104AA00086B13CB143B13F67806C38234F6B3423F0
:104AB0003095322790916E019323909590936E01DB
:104AC00020916D012323292720936D0193239223A5
:104AD0008091360489278093360420913604809192
:104AE00034049223982B90933404809136048C7F65
:104AF00019F48CE380936C0180916C01815019F062
:104B000080936C010BC08AE080936C018091360425
:104B1000909135048C7F892B809335047894CB0158
:104B200008958DB18F7C8DB98EB180638EB96F98E9
:104B3000779A87B1837C87B988B18C6388B92698C6
:104B40002E9A20E030E042E050E060E070E08FE23A
:104B500095E20E94F52020E030E04AE050E060E07D
:104B600070E08CE495E20C94F520F8948091370481
:104B700090913704917090933704789485950895B7
:104B8000F894909134048923909134049827909359
:104B9000340478940895F894909135048923909181
:104BA00035049827909335047894089590913604AD
:104BB00089230895F89490913604909589230C9454
:104BC000C0250E94CB250C94C0250F931F93CF9333
:104BD000DF93CDB7DEB728970FB6F894DEBF0FBED0
:104BE000CDBF382F862F8A01232F432F392F592FDE
:104BF000972F0E94ED2128960FB6F894DEBF0FBEC6
:104C0000CDBFDF91CF911F910F9108950F931F9307
:104C1000CF93DF93CDB7DEB728970FB6F894DEBFFA
:104C20000FBECDBFFC01962F872F89012E2FFA834F
:104C3000E983BF01640F751F462F7C836B83692F47
:104C40003A815C81782F892F972F0E94ED21289639
:104C50000FB6F894DEBF0FBECDBFDF91CF911F918D
:104C60000F9108950F931F93CF93DF93CDB7DEB7C6
:104C700028970FB6F894DEBF0FBECDBFFC01862F7C
:104C8000DF01A41BB50BBA83A9834E2FFC83EB83F2
:104C900089012A2F3A815C81972F0E94ED21289665
:104CA0000FB6F894DEBF0FBECDBFDF91CF911F913D
:104CB0000F9108950F931F93CF93DF93CDB7DEB776
:104CC00028970FB6F894DEBF0FBECDBFFA01890159
:104CD000282F9A83482F7E836D83CB018E0F9F1FD1
:104CE00098878F833A81532F7E8198850E94ED218A
:104CF00028960FB6F894DEBF0FBECDBFDF91CF91DF
:104D00001F910F9108950F931F93CF93DF93CDB70A
:104D1000DEB728970FB6F894DEBF0FBECDBFFB01FC
:104D2000BA018901282F9A83482FCF01861B970B40
:104D3000682F9E838D83F887EF833A81532F7E817E
:104D40008E2F98850E94ED2128960FB6F894DEBF2D
:104D50000FBECDBFDF91CF911F910F9108950C949D
:104D60005A260C9406263F924F925F926F927F9242
:104D70008F929F92AF92BF92CF92DF92EF92FF926B
:104D80000F931F93CF93DF93EC017B016A012801FE
:104D9000A901461B570B57FF03C051954195510977
:104DA000C6018C1B9D0B97FF03C0919581959109BE
:104DB000332433948417950714F0312C0AC09C2DAA
:104DC0008D2D6901292F382F9C2F8D2FE701E92E7A
:104DD000F82ECC16DD0654F49E2D8F2D7901292F47
:104DE000382F9C2F8D2FE601C92ED82E86010C1B43
:104DF0001D0B5901AE18BF08B7FE03C0B194A194B2
:104E0000B108380117FF03C08FEF681A780A75944C
:104E10006794E216F30624F088248A94982C14C030
:104E200088248394912C10C0A201332089F0BE0104
:104E3000C7010E94E5256A187B0877FE04C0E80CCC
:104E4000F91C600E711E2196CC16DD066CF703C0AE
:104E5000B701CE01EECFDF91CF911F910F91FF905F
:104E6000EF90DF90CF90BF90AF909F908F907F900A
:104E70006F905F904F903F9008952F923F924F9286
:104E80005F926F927F928F929F92AF92BF92CF92DA
:104E9000DF92EF92FF920F931F93CF93DF9300D097
:104EA00000D000D0CDB7DEB77C016B015E834D83AF
:104EB000890181E090E04C01841A950A9A013195AC
:104EC00021953109C901880F991F9A838983BA01F5
:104ED0006C0D7D1DA801C7010E94E525B6012D813D
:104EE0003E81621B730BA801C7010E94E525A80142
:104EF000B6018D819E818E0D9F1D0E94E525A80122
:104F0000B601C7012D813E81821B930B0E94E525CE
:104F1000A12CB12C21E030E08D819E81A816B9062C
:104F20000CF060C097FC0CC08D819E8101979E8320
:104F30008D8389819A8102969A838983880E991E2E
:104F40009FEFA91AB90A2E5F3F4F820E931E2501CB
:104F50004E0C5F1CA8016D807E806C0C7D1CB30123
:104F6000C2012B833C830E94E52517012A183B08C8
:104F7000A801B301C1010E94E525A80136018D8178
:104F80009E81681A790AB301C2010E94E525A80131
:104F9000B301C1010E94E52535016C0C7D1CA801FF
:104FA000B3014D805E804E0C5F1CC2010E94E5255E
:104FB000A801B30117018D819E81281A390AC10108
:104FC0000E94E52536016A187B08A801B301C201D9
:104FD0000E94E525A801B301C1010E94E5253C819D
:104FE0002B819ACF26960FB6F894DEBF0FBECDBFA9
:104FF000DF91CF911F910F91FF90EF90DF90CF90B5
:10500000BF90AF909F908F907F906F905F904F90E8
:105010003F902F9008952F923F924F925F926F9200
:105020007F928F929F92AF92BF92CF92DF92EF9238
:10503000FF920F931F93CF93DF9300D000D0CDB793
:10504000DEB76C015B015C834B83380181E090E04B
:105050004C01841A950A1A01319421943108220CCA
:10506000331C280101E010E0322F317039832270A7
:105070002A83C80101972B813C81821793070CF08A
:1050800060C097FC0BC04B815C81415051095C832F
:105090004B8352E0250E311C820C931CC801880FF3
:1050A000991F0196880E991E8981882301F14B81F1
:1050B0005C81440F551F4F5F5F4F460D571D970191
:1050C000B501EB81FC816E1B7F0BC8018C0D9D1D12
:1050D0000E945A269701A2014D5F5F4FB501601BE8
:1050E000710B8B819C818C0D9D1D0E945A26FA812B
:1050F000FF2309F14B815C81440F551F4F5F5F4FC8
:10510000460D571D9701B5018B819C81681B790B5A
:10511000C601801B910B0E945A269701A2014D5F88
:105120005F4FB501601B710BC601EB81FC818E1BCB
:105130009F0B0E945A260F5F1F4FF2E04F0E511C2B
:1051400098CF0F900F900F900F90DF91CF911F91FC
:105150000F91FF90EF90DF90CF90BF90AF909F9016
:105160008F907F906F905F904F903F902F90089519
:10517000AF92BF92CF92DF92EF92FF920F931F9365
:10518000CF93DF936C015B01EA017901440F551F56
:105190004F5F5F4F6C1B7D0BC6010E945A2600E0DB
:1051A00010E023E0AE01B501C6010E940B28DF919B
:1051B000CF911F910F91FF90EF90DF90CF90BF9014
:1051C000AF9008954F925F926F927F928F929F92CD
:1051D000AF92BF92CF92DF92EF92FF920F931F9305
:1051E000CF93DF93CDB7DEB728970FB6F894DEBF25
:1051F0000FBECDBFE0917001F0917101EF2B09F46A
:105200004AC029013A016B017C01009172011091A1
:105210007301CA01B9010E943F319B01AC01C70172
:10522000B6012D833E834F8358870E943F314B0147
:105230005C01609138047091390480913A04909136
:105240003B040E943F3169837A838B839C83609106
:105250003C0470913D0480913E0490913F040E9473
:105260003F31DC01CB012D813E81A40169817A812E
:105270000E94B326409238045092390460923A0456
:1052800070923B04C0923C04D0923D04E0923E04F4
:10529000F0923F0410C020933804309339044093B7
:1052A0003A0450933B0460933C0470933D04809314
:1052B0003E0490933F0428960FB6F894DEBF0FBECD
:1052C000CDBFDF91CF911F910F91FF90EF90DF90B5
:1052D000CF90BF90AF909F908F907F906F905F9096
:1052E0004F9008950F931F93CF93DF9300D000D07A
:1052F000CDB7DEB78C01072E000C880B990B0E94EE
:1053000077319B01AC01B801110F880B990B2983F0
:105310003A834B835C830E94773129813A814B81A8
:105320005C810F900F900F900F90DF91CF911F91A4
:105330000F910C94E2288F929F92AF92BF92CF92DE
:10534000DF92EF92FF920F931F93CF93DF93EC01C5
:1053500080917001909171016E010D2E000CEE088C
:10536000FF08892BF9F060913C0470913D04809115
:105370003E0490913F040E943F314B015C0100913B
:105380007201109173016091380470913904809119
:105390003A0490913B040E943F319401AE01C40154
:1053A0000E94B326C701B6010E94773160933C0486
:1053B00070933D0480933E0490933F04DF91CF911E
:1053C0001F910F91FF90EF90DF90CF90BF90AF9023
:1053D0009F908F9008958F929F92AF92BF92CF929D
:1053E000DF92EF92FF920F931F93CF93DF93EC0125
:1053F00080917001909171016E010D2E000CEE08EC
:10540000FF08892BF9F060913C0470913D04809174
:105410003E0490913F040E943F314B015C0100919A
:105420007201109173016091380470913904809178
:105430003A0490913B040E943F319E01A401C401B3
:105440000E94B326C701B6010E94773160933804E9
:105450007093390480933A0490933B04DF91CF9189
:105460001F910F91FF90EF90DF90CF90BF90AF9082
:105470009F908F9008950F931F93CF93DF9300D049
:1054800000D0CDB7DEB78C01072E000C880B990B2E
:105490000E9477319B01AC01B801110F880B990B69
:1054A00029833A834B835C830E94773129813A8137
:1054B0004B815C810F900F900F900F90DF91CF91F7
:1054C0001F910F910C94E2281092710110927001BB
:1054D0000895109271011092700108951092710157
:1054E00010927001089581E090E090937101809393
:1054F0007001089581E090E09093710180937001B4
:10550000089581E090E09093710180937001089577
:1055100097FF02C088599E4F68E671E00E94F72FFE
:10552000909375018093740108950C94882A2091BA
:10553000740130917501820F931F0C94882A0C948A
:10554000972A2091740130917501A901481B590BCC
:10555000CA010C94882A0C94A12A90937301809319
:10556000720108950E944B3369E070E00E94F72FAA
:10557000181619061CF08FEF9FEF2AC08130910595
:1055800029F41092730110927201089582309105EE
:1055900019F48FE190E01CC08330910519F480EE7E
:1055A00097E016C08430910519F48FEF97E010C092
:1055B0008530910519F480E098EF0AC08630910596
:1055C00019F48FE198EF04C0079731F480EE9FEF54
:1055D000909373018093720108950E944B3369E0A8
:1055E00070E00E94F72F18161906ACF4813091056F
:1055F000A1F08230910599F08330910599F08430C3
:10560000910591F08530910591F08630910589F0F2
:10561000079791F008958FEF10C080E001C08FE1EF
:1056200090E0089580EE01C08FEF97E0089580E04C
:1056300001C08FE198EF089580EE9FEF08950F93DA
:105640001F93CF93DF9300D000D0CDB7DEB706E233
:1056500014E0F801628173817695679580E090E0AF
:105660000E9475319B01AC01F80180819181969572
:105670008795BC0180E090E029833A834B835C836B
:105680000E94753129813A814B815C810F900F9086
:105690000F900F90DF91CF911F910F910C94E22802
:1056A000CF92DF92EF92FF920F931F93CF93DF93EE
:1056B000EC010091720110917301609138047091B6
:1056C000390480913A0490913B040E943F316B0170
:1056D0007C0160913C0470913D0480913E04909166
:1056E0003F040E943F31DC01CB019801AE01B601BD
:1056F000DF91CF911F910F91FF90EF90DF90CF90AE
:105700000C943D27CF92DF92EF92FF920F931F935D
:10571000CF93DF93EC0100917201109173016091BE
:1057200038047091390480913A0490913B040E94AE
:105730003F316B017C0160913C0470913D0480918C
:105740003E0490913F040E943F31DC01CB0198015F
:10575000AE01B601DF91CF911F910F91FF90EF90B5
:10576000DF90CF900C94B8284F925F926F927F9207
:105770008F929F92AF92BF92CF92DF92EF92FF9261
:10578000CF93DF937C01C0917401D0917501CA352C
:10579000D10509F4B0C0B8F5209709F0E8C0C09170
:1057A0007201D09173016091380470913904809135
:1057B0003A0490913B040E9446314B015C01609198
:1057C0003C0470913D0480913E0490913F040E94FE
:1057D0004631DC01CB019E01A701B4010E94832662
:1057E000B701FF0C880B990B0E9477319B01AC012C
:1057F000609138047091390480913A0490913B048F
:105800000E945B306FC0C43BD105C9F1CE3081E04E
:10581000D80709F0ACC0C0917201D09173016091BA
:1058200038047091390480913A0490913B040E94AD
:1058300046314B015C0160913C0470913D048091C4
:105840003E0490913F040E944631DC01CB019E0151
:10585000A701B4010E943226B701FF0C880B990BF7
:105860000E9477319B01AC0160913C0470913D0432
:1058700080913E0490913F040E945B306FC0C091C4
:105880007201D09173016091380470913904809154
:105890003A0490913B040E9446314B015C016091B7
:1058A0003C0470913D0480913E0490913F040E941D
:1058B0004631DC01CB019E01A701B4010E945A26AA
:1058C000B701FF0C880B990B0E9477319B01AC014B
:1058D000609138047091390480913A0490913B04AE
:1058E0000E945C30609338047093390480933A04CA
:1058F00090933B046EC1C0917201D091730160918D
:1059000038047091390480913A0490913B040E94CC
:1059100046314B015C0160913C0470913D048091E3
:105920003E0490913F040E944631DC01CB019E0170
:10593000A701B4010E940626B701FF0C880B990B42
:105940000E9477319B01AC0160913C0470913D0451
:1059500080913E0490913F040E945C3060933C042F
:1059600070933D0480933E0490933F0432C19E01A6
:105970002150310929353105D0F5B701FF0C880BCD
:10598000990B0E9477316B017C018AE590E08C1BBA
:105990009D0BBC0180E090E00E9475312BED3FE053
:1059A00049E450E40E94423220E030E044E353E412
:1059B0000E94CD304B015C010E94C8302B013C019C
:1059C000C501B4010E94AF329B01AC01C701B60111
:1059D0000E9442329B01AC016091380470913904FD
:1059E00080913A0490913B040E945B303DC09E013F
:1059F0002B5531092935310508F049C0B701FF0C95
:105A0000880B990B0E9477316B017C01CE018A557E
:105A10009109BC0180E090E00E9475312BED3FE0E0
:105A200049E450E40E94423220E030E044E353E491
:105A30000E94CD304B015C010E94C8302B013C011B
:105A4000C501B4010E94AF329B01AC01C701B60190
:105A50000E944232209138043091390440913A0436
:105A600050913B040E945C304B015C01A301920108
:105A7000C701B6010E94423220913C0430913D049E
:105A800040913E0450913F040E945C3090C09E01C2
:105A9000255B310929353105B8F5B701FF0C880BB5
:105AA000990B0E9477316B017C01CE01845B9109D7
:105AB000BC0180E090E00E9475312BED3FE049E4AD
:105AC00050E40E94423220E030E044E353E40E947C
:105AD000CD304B015C010E94AF322B013C01C5016E
